{
  "_format": "hh-sol-artifact-1",
  "contractName": "Faucet",
  "sourceName": "src/backend/contracts/Faucet.sol",
  "abi": [
    {
      "inputs": [],
      "stateMutability": "payable",
      "type": "constructor"
    },
    {
      "inputs": [],
      "name": "amountAllowed",
      "outputs": [
        {
          "internalType": "uint256",
          "name": "",
          "type": "uint256"
        }
      ],
      "stateMutability": "view",
      "type": "function"
    },
    {
      "inputs": [],
      "name": "donateTofaucet",
      "outputs": [],
      "stateMutability": "payable",
      "type": "function"
    },
    {
      "inputs": [],
      "name": "getAvailableTokens",
      "outputs": [
        {
          "internalType": "uint256",
          "name": "",
          "type": "uint256"
        }
      ],
      "stateMutability": "view",
      "type": "function"
    },
    {
      "inputs": [
        {
          "internalType": "address",
          "name": "",
          "type": "address"
        }
      ],
      "name": "lockTime",
      "outputs": [
        {
          "internalType": "uint256",
          "name": "",
          "type": "uint256"
        }
      ],
      "stateMutability": "view",
      "type": "function"
    },
    {
      "inputs": [],
      "name": "owner",
      "outputs": [
        {
          "internalType": "address",
          "name": "",
          "type": "address"
        }
      ],
      "stateMutability": "view",
      "type": "function"
    },
    {
      "inputs": [
        {
          "internalType": "address payable",
          "name": "_requestor",
          "type": "address"
        }
      ],
      "name": "requestTokens",
      "outputs": [],
      "stateMutability": "payable",
      "type": "function"
    },
    {
      "inputs": [
        {
          "internalType": "uint256",
          "name": "newAmountAllowed",
          "type": "uint256"
        }
      ],
      "name": "setAmountallowed",
      "outputs": [],
      "stateMutability": "nonpayable",
      "type": "function"
    },
    {
      "inputs": [
        {
          "internalType": "address",
          "name": "newOwner",
          "type": "address"
        }
      ],
      "name": "setOwner",
      "outputs": [],
      "stateMutability": "nonpayable",
      "type": "function"
    }
  ],
  "bytecode": "0x608060405267016345785d8a0000600155336000806101000a81548173ffffffffffffffffffffffffffffffffffffffff021916908373ffffffffffffffffffffffffffffffffffffffff1602179055506108fe8061005f6000396000f3fe60806040526004361061007b5760003560e01c80639ad2cd141161004e5780639ad2cd14146100fa578063a4beda6314610125578063e35568cb14610162578063f3aa52a11461018d5761007b565b806313af403514610080578063580f3904146100a9578063605e73cd146100c55780638da5cb5b146100cf575b600080fd5b34801561008c57600080fd5b506100a760048036038101906100a2919061051a565b6101b6565b005b6100c360048036038101906100be9190610543565b610287565b005b6100cd6103ea565b005b3480156100db57600080fd5b506100e46103f9565b6040516100f1919061061c565b60405180910390f35b34801561010657600080fd5b5061010f61041d565b60405161011c9190610697565b60405180910390f35b34801561013157600080fd5b5061014c6004803603810190610147919061051a565b610423565b6040516101599190610697565b60405180910390f35b34801561016e57600080fd5b5061017761043b565b6040516101849190610697565b60405180910390f35b34801561019957600080fd5b506101b460048036038101906101af919061056c565b610443565b005b60008054906101000a900473ffffffffffffffffffffffffffffffffffffffff1673ffffffffffffffffffffffffffffffffffffffff163373ffffffffffffffffffffffffffffffffffffffff1614610244576040517f08c379a000000000000000000000000000000000000000000000000000000000815260040161023b90610637565b60405180910390fd5b806000806101000a81548173ffffffffffffffffffffffffffffffffffffffff021916908373ffffffffffffffffffffffffffffffffffffffff16021790555050565b600260003373ffffffffffffffffffffffffffffffffffffffff1673ffffffffffffffffffffffffffffffffffffffff168152602001908152602001600020544211610308576040517f08c379a00000000000000000000000000000000000000000000000000000000081526004016102ff90610657565b60405180910390fd5b600154471161034c576040517f08c379a000000000000000000000000000000000000000000000000000000000815260040161034390610677565b60405180910390fd5b8073ffffffffffffffffffffffffffffffffffffffff166108fc6001549081150290604051600060405180830381858888f19350505050158015610394573d6000803e3d6000fd5b5062015180426103a491906106c3565b600260003373ffffffffffffffffffffffffffffffffffffffff1673ffffffffffffffffffffffffffffffffffffffff1681526020019081526020016000208190555050565b600134116103f757600080fd5b565b60008054906101000a900473ffffffffffffffffffffffffffffffffffffffff1681565b60015481565b60026020528060005260406000206000915090505481565b600047905090565b60008054906101000a900473ffffffffffffffffffffffffffffffffffffffff1673ffffffffffffffffffffffffffffffffffffffff163373ffffffffffffffffffffffffffffffffffffffff16146104d1576040517f08c379a00000000000000000000000000000000000000000000000000000000081526004016104c890610637565b60405180910390fd5b8060018190555050565b6000813590506104ea81610883565b92915050565b6000813590506104ff8161089a565b92915050565b600081359050610514816108b1565b92915050565b60006020828403121561052c57600080fd5b600061053a848285016104db565b91505092915050565b60006020828403121561055557600080fd5b6000610563848285016104f0565b91505092915050565b60006020828403121561057e57600080fd5b600061058c84828501610505565b91505092915050565b61059e81610719565b82525050565b60006105b16022836106b2565b91506105bc82610796565b604082019050919050565b60006105d46031836106b2565b91506105df826107e5565b604082019050919050565b60006105f7602d836106b2565b915061060282610834565b604082019050919050565b6106168161075d565b82525050565b60006020820190506106316000830184610595565b92915050565b60006020820190508181036000830152610650816105a4565b9050919050565b60006020820190508181036000830152610670816105c7565b9050919050565b60006020820190508181036000830152610690816105ea565b9050919050565b60006020820190506106ac600083018461060d565b92915050565b600082825260208201905092915050565b60006106ce8261075d565b91506106d98361075d565b9250827fffffffffffffffffffffffffffffffffffffffffffffffffffffffffffffffff0382111561070e5761070d610767565b5b828201905092915050565b60006107248261073d565b9050919050565b60006107368261073d565b9050919050565b600073ffffffffffffffffffffffffffffffffffffffff82169050919050565b6000819050919050565b7f4e487b7100000000000000000000000000000000000000000000000000000000600052601160045260246000fd5b7f4f6e6c79206f776e65722063616e2063616c6c20746869732066756e6374696f60008201527f6e2e000000000000000000000000000000000000000000000000000000000000602082015250565b7f6c6f636b2074696d6520686173206e6f7420657870697265642e20506c65617360008201527f652074727920616761696e206c61746572000000000000000000000000000000602082015250565b7f4e6f7420656e6f7567682066756e647320696e20746865206661756365742e2060008201527f506c6561736520646f6e61746500000000000000000000000000000000000000602082015250565b61088c81610719565b811461089757600080fd5b50565b6108a38161072b565b81146108ae57600080fd5b50565b6108ba8161075d565b81146108c557600080fd5b5056fea2646970667358221220b05df912c62f75dfee7e400eb8cb256a97dd2ad6c0003d1d6d331663efc0a6a364736f6c63430008040033",
  "linkReferences": {},
  "deployedLinkReferences": {}
}