{
  "_format": "hh-sol-artifact-1",
  "contractName": "faucet",
  "sourceName": "backend/contracts/faucet.sol",
  "abi": [
    {
      "inputs": [],
      "stateMutability": "payable",
      "type": "constructor"
    },
    {
      "inputs": [],
      "name": "amountAllowed",
      "outputs": [
        {
          "internalType": "uint256",
          "name": "",
          "type": "uint256"
        }
      ],
      "stateMutability": "view",
      "type": "function"
    },
    {
      "inputs": [],
      "name": "donateTofaucet",
      "outputs": [],
      "stateMutability": "payable",
      "type": "function"
    },
    {
      "inputs": [],
      "name": "getAvailableTokens",
      "outputs": [
        {
          "internalType": "uint256",
          "name": "",
          "type": "uint256"
        }
      ],
      "stateMutability": "view",
      "type": "function"
    },
    {
      "inputs": [
        {
          "internalType": "address",
          "name": "",
          "type": "address"
        }
      ],
      "name": "lockTime",
      "outputs": [
        {
          "internalType": "uint256",
          "name": "",
          "type": "uint256"
        }
      ],
      "stateMutability": "view",
      "type": "function"
    },
    {
      "inputs": [],
      "name": "owner",
      "outputs": [
        {
          "internalType": "address",
          "name": "",
          "type": "address"
        }
      ],
      "stateMutability": "view",
      "type": "function"
    },
    {
      "inputs": [
        {
          "internalType": "address payable",
          "name": "_requestor",
          "type": "address"
        }
      ],
      "name": "requestTokens",
      "outputs": [],
      "stateMutability": "payable",
      "type": "function"
    },
    {
      "inputs": [
        {
          "internalType": "uint256",
          "name": "newAmountAllowed",
          "type": "uint256"
        }
      ],
      "name": "setAmountallowed",
      "outputs": [],
      "stateMutability": "nonpayable",
      "type": "function"
    },
    {
      "inputs": [
        {
          "internalType": "address",
          "name": "newOwner",
          "type": "address"
        }
      ],
      "name": "setOwner",
      "outputs": [],
      "stateMutability": "nonpayable",
      "type": "function"
    }
  ],
  "bytecode": "0x6080604052674563918244f40000600155336000806101000a81548173ffffffffffffffffffffffffffffffffffffffff021916908373ffffffffffffffffffffffffffffffffffffffff16021790555061090f8061005f6000396000f3fe60806040526004361061007b5760003560e01c80639ad2cd141161004e5780639ad2cd14146100fa578063a4beda6314610125578063e35568cb14610162578063f3aa52a11461018d5761007b565b806313af403514610080578063580f3904146100a9578063605e73cd146100c55780638da5cb5b146100cf575b600080fd5b34801561008c57600080fd5b506100a760048036038101906100a2919061053e565b6101b6565b005b6100c360048036038101906100be91906105a9565b610287565b005b6100cd6103ea565b005b3480156100db57600080fd5b506100e46103f9565b6040516100f191906105e5565b60405180910390f35b34801561010657600080fd5b5061010f61041d565b60405161011c9190610619565b60405180910390f35b34801561013157600080fd5b5061014c6004803603810190610147919061053e565b610423565b6040516101599190610619565b60405180910390f35b34801561016e57600080fd5b5061017761043b565b6040516101849190610619565b60405180910390f35b34801561019957600080fd5b506101b460048036038101906101af9190610660565b610443565b005b60008054906101000a900473ffffffffffffffffffffffffffffffffffffffff1673ffffffffffffffffffffffffffffffffffffffff163373ffffffffffffffffffffffffffffffffffffffff1614610244576040517f08c379a000000000000000000000000000000000000000000000000000000000815260040161023b90610710565b60405180910390fd5b806000806101000a81548173ffffffffffffffffffffffffffffffffffffffff021916908373ffffffffffffffffffffffffffffffffffffffff16021790555050565b600260003373ffffffffffffffffffffffffffffffffffffffff1673ffffffffffffffffffffffffffffffffffffffff168152602001908152602001600020544211610308576040517f08c379a00000000000000000000000000000000000000000000000000000000081526004016102ff906107a2565b60405180910390fd5b600154471161034c576040517f08c379a000000000000000000000000000000000000000000000000000000000815260040161034390610834565b60405180910390fd5b8073ffffffffffffffffffffffffffffffffffffffff166108fc6001549081150290604051600060405180830381858888f19350505050158015610394573d6000803e3d6000fd5b5062015180426103a49190610883565b600260003373ffffffffffffffffffffffffffffffffffffffff1673ffffffffffffffffffffffffffffffffffffffff1681526020019081526020016000208190555050565b600134116103f757600080fd5b565b60008054906101000a900473ffffffffffffffffffffffffffffffffffffffff1681565b60015481565b60026020528060005260406000206000915090505481565b600047905090565b60008054906101000a900473ffffffffffffffffffffffffffffffffffffffff1673ffffffffffffffffffffffffffffffffffffffff163373ffffffffffffffffffffffffffffffffffffffff16146104d1576040517f08c379a00000000000000000000000000000000000000000000000000000000081526004016104c890610710565b60405180910390fd5b8060018190555050565b600080fd5b600073ffffffffffffffffffffffffffffffffffffffff82169050919050565b600061050b826104e0565b9050919050565b61051b81610500565b811461052657600080fd5b50565b60008135905061053881610512565b92915050565b600060208284031215610554576105536104db565b5b600061056284828501610529565b91505092915050565b6000610576826104e0565b9050919050565b6105868161056b565b811461059157600080fd5b50565b6000813590506105a38161057d565b92915050565b6000602082840312156105bf576105be6104db565b5b60006105cd84828501610594565b91505092915050565b6105df81610500565b82525050565b60006020820190506105fa60008301846105d6565b92915050565b6000819050919050565b61061381610600565b82525050565b600060208201905061062e600083018461060a565b92915050565b61063d81610600565b811461064857600080fd5b50565b60008135905061065a81610634565b92915050565b600060208284031215610676576106756104db565b5b60006106848482850161064b565b91505092915050565b600082825260208201905092915050565b7f4f6e6c79206f776e65722063616e2063616c6c20746869732066756e6374696f60008201527f6e2e000000000000000000000000000000000000000000000000000000000000602082015250565b60006106fa60228361068d565b91506107058261069e565b604082019050919050565b60006020820190508181036000830152610729816106ed565b9050919050565b7f6c6f636b2074696d6520686173206e6f7420657870697265642e20506c65617360008201527f652074727920616761696e206c61746572000000000000000000000000000000602082015250565b600061078c60318361068d565b915061079782610730565b604082019050919050565b600060208201905081810360008301526107bb8161077f565b9050919050565b7f4e6f7420656e6f7567682066756e647320696e20746865206661756365742e2060008201527f506c6561736520646f6e61746500000000000000000000000000000000000000602082015250565b600061081e602d8361068d565b9150610829826107c2565b604082019050919050565b6000602082019050818103600083015261084d81610811565b9050919050565b7f4e487b7100000000000000000000000000000000000000000000000000000000600052601160045260246000fd5b600061088e82610600565b915061089983610600565b9250827fffffffffffffffffffffffffffffffffffffffffffffffffffffffffffffffff038211156108ce576108cd610854565b5b82820190509291505056fea2646970667358221220638f5fdcdbb6c1e044d564cd541b207ae10e0b309fa8a16b38363d92c187572b64736f6c63430008090033",
  "linkReferences": {},
  "deployedLinkReferences": {}
}