{
  "_format": "hh-sol-artifact-1",
  "contractName": "SiteManager",
  "sourceName": "backend/contracts/SiteManager.sol",
  "abi": [
    {
      "inputs": [],
      "stateMutability": "nonpayable",
      "type": "constructor"
    },
    {
      "anonymous": false,
      "inputs": [
        {
          "indexed": false,
          "internalType": "address",
          "name": "newAdmin",
          "type": "address"
        }
      ],
      "name": "ContractAdminChanged",
      "type": "event"
    },
    {
      "anonymous": false,
      "inputs": [
        {
          "indexed": false,
          "internalType": "address",
          "name": "newAdmin",
          "type": "address"
        }
      ],
      "name": "SiteAdminChanged",
      "type": "event"
    },
    {
      "anonymous": false,
      "inputs": [
        {
          "indexed": false,
          "internalType": "address",
          "name": "viewer",
          "type": "address"
        }
      ],
      "name": "ViewSiteAdmin",
      "type": "event"
    },
    {
      "inputs": [],
      "name": "contractAdmin",
      "outputs": [
        {
          "internalType": "address",
          "name": "",
          "type": "address"
        }
      ],
      "stateMutability": "view",
      "type": "function"
    },
    {
      "inputs": [],
      "name": "getSiteAdmin",
      "outputs": [
        {
          "internalType": "address",
          "name": "",
          "type": "address"
        }
      ],
      "stateMutability": "nonpayable",
      "type": "function"
    },
    {
      "inputs": [
        {
          "internalType": "address",
          "name": "newOwner",
          "type": "address"
        }
      ],
      "name": "setOwner",
      "outputs": [],
      "stateMutability": "nonpayable",
      "type": "function"
    },
    {
      "inputs": [],
      "name": "siteAdmin",
      "outputs": [
        {
          "internalType": "address",
          "name": "",
          "type": "address"
        }
      ],
      "stateMutability": "view",
      "type": "function"
    }
  ],
  "bytecode": "0x608060405234801561001057600080fd5b50336000806101000a81548173ffffffffffffffffffffffffffffffffffffffff021916908373ffffffffffffffffffffffffffffffffffffffff16021790555061040b806100606000396000f3fe608060405234801561001057600080fd5b506004361061004c5760003560e01c806313af40351461005157806315ef02081461006d578063779552451461008b578063c1225b7f146100a9575b600080fd5b61006b600480360381019061006691906102db565b6100c7565b005b6100756101cf565b6040516100829190610317565b60405180910390f35b6100936101f3565b6040516100a09190610317565b60405180910390f35b6100b1610219565b6040516100be9190610317565b60405180910390f35b60008054906101000a900473ffffffffffffffffffffffffffffffffffffffff1673ffffffffffffffffffffffffffffffffffffffff163373ffffffffffffffffffffffffffffffffffffffff1614610155576040517f08c379a000000000000000000000000000000000000000000000000000000000815260040161014c906103b5565b60405180910390fd5b806000806101000a81548173ffffffffffffffffffffffffffffffffffffffff021916908373ffffffffffffffffffffffffffffffffffffffff1602179055507f5e27d2cdc42711ef524187ee56055a2e4c68fdccc4954e67a2af9f422ba16b1c816040516101c49190610317565b60405180910390a150565b60008054906101000a900473ffffffffffffffffffffffffffffffffffffffff1681565b600160009054906101000a900473ffffffffffffffffffffffffffffffffffffffff1681565b60007f8220d4e87d5204feeddbb53cbc967ebd018c7e463e226c88e0dede5fd898fe623360405161024a9190610317565b60405180910390a160008054906101000a900473ffffffffffffffffffffffffffffffffffffffff16905090565b600080fd5b600073ffffffffffffffffffffffffffffffffffffffff82169050919050565b60006102a88261027d565b9050919050565b6102b88161029d565b81146102c357600080fd5b50565b6000813590506102d5816102af565b92915050565b6000602082840312156102f1576102f0610278565b5b60006102ff848285016102c6565b91505092915050565b6103118161029d565b82525050565b600060208201905061032c6000830184610308565b92915050565b600082825260208201905092915050565b7f4f6e6c79206f776e65722063616e2063616c6c20746869732066756e6374696f60008201527f6e2e000000000000000000000000000000000000000000000000000000000000602082015250565b600061039f602283610332565b91506103aa82610343565b604082019050919050565b600060208201905081810360008301526103ce81610392565b905091905056fea2646970667358221220c7dde4312e0f09948a83e0c1c20c6e462d817cbff6d362ff838826b01c7443da64736f6c63430008090033",
  "linkReferences": {},
  "deployedLinkReferences": {}
}